:0F00000075A0FF7830759000E5A0540FB40FF68F
:0F000F001198E5A0540FB40F0280F51198E5A0E9
:0E001E00540FB40F0280EA7590FEE5A0540F57
:10002C00B40F217590FDE5A0540FB40F1C7590FB17
:0E003C00E5A0540FB40F177590F7E5A0540F10
:10004A00B40F1202000F900300800D900304800881
:10005A00900308800390030C135003A380FAE493DF
:0F006A00F5809430F608B4FA22E530C48531F001
:0F00790025F0F5307531007532007840E540C450
:100088008541F025F0F540754100754200020005F4
:050098007E14DEFE22D3
:100300003132334134353642373839432A30234489
:00000001FF
