:0F00000075A0FF759000E5A0540FB40FF6116DB9
:0F000F00E5A0540FB40F0280F5116DE5A0540F5A
:0F001E00B40F0280EA7590FEE5A0540FB40F21D5
:0F002D007590FDE5A0540FB40F1C7590FBE5A076
:0F003C00540FB40F177590F7E5A0540FB40F12BF
:10004B0002000D900300800D9003048008900308BC
:0F005B00800390030C135003A380FAE493F58005
:08006A000200037E14DFFE22F8
:10030000303132333435363738394142434445464B
:100310003F065B4F666D7D077F6F777C395E797135
:00000001FF
